:020000040800F2
:1000000048400320CD01000891B50008FD8D00088F
:10001000B9AF0008F132000801EF0008000000004D
:10002000000000000000000000000000C9CE000831
:100030007D340008000000002DBA000885D10008BA
:10004000E7010008E7010008E7010008E7010008F0
:10005000E7010008E70100083D360008E701000855
:1000600061360008E7010008E7010008E701000821
:10007000E701000861330008E7010008E701000814
:10008000E7010008E7010008E7010008E7010008B0
:10009000E7010008E7010008E7010008E7010008A0
:1000A000E7010008E7010008E7010008E701000890
:1000B000E7010008E7010008E7010008E701000880
:1000C000E7010008E7010008E7010008E701000870
:1000D000E7010008E7010008E7010008E701000860
:1000E000E7010008E7010008E7010008E701000850
:1000F000E7010008E7010008E7010008E701000840
:10010000E701000849C80008E7010008E701000806
:10011000E7010008E7010008E7010008E70100081F
:10012000E701000831340008E70100083D34000809
:10013000E7010008E7010008E7010008E7010008FF
:10014000E7010008E7010008E7010008A5B500087D
:10015000E701000841340008E7010008E701000852
:10016000E7010008E7010008E7010008E7010008CF
:10017000E7010008E7010008E701000800000000AF
:10018000E7010008E7010008E7010008E7010008AF
:10019000E7010008E7010008E7010008E70100089F
:1001A000E7010008E7010008E7010008E70100088F
:1001B000E7010008DFF810D000F09CFF004800477E
:1001C000717B0108AFF30080484003200648804758
:1001D00006480047FEE7FEE7FEE7FEE7FEE7FEE72C
:1001E000FEE7FEE7FEE7FEE795D10008B50100084F
:1001F00081FB0020704770472DE9F04F82B00190DD
:100200004FF000744FF000784FF000054FF00009F8
:1002100052F804CB52F804EB0868CB6DC0FB0C45D8
:10022000D1F88000CEF1000EC3FB0E45D1F8DC30D2
:10023000C0FB0C89C3FB0E8952F804CB52F804EBC7
:1002400048688B6DC0FB0C45D1F88400CEF1000EE0
:10025000C3FB0E45D1F8D830C0FB0C89C3FB0E8917
:1002600052F804CB52F804EB88684B6DC0FB0C4588
:10027000D1F88800CEF1000EC3FB0E45D1F8D43082
:10028000C0FB0C89C3FB0E8952F804CB52F804EB77
:10029000C8680B6DC0FB0C45D1F88C00CEF1000E88
:1002A000C3FB0E45D1F8D030C0FB0C89C3FB0E89CF
:1002B00052F804CB52F804EB0869CB6CC0FB0C4538
:1002C000D1F89000CEF1000EC3FB0E45D1F8CC3032
:1002D000C0FB0C89C3FB0E8952F804CB52F804EB27
:1002E00048698B6CC0FB0C45D1F89400CEF1000E30
:1002F000C3FB0E45D1F8C830C0FB0C89C3FB0E8987
:1003000052F804CB52F804EB88694B6CC0FB0C45E7
:10031000D1F89800CEF1000EC3FB0E45D1F8C430E1
:10032000C0FB0C89C3FB0E8952F804CB52F804EBD6
:10033000C8690B6CC0FB0C45D1F89C00CEF1000ED7
:10034000C3FB0E45D1F8C030C0FB0C89C3FB0E893E
:1003500001984FF4FE4E4EF0FF0E4FEA946444EACB
:1003600085144FEAE47CBCEBE43F18BF8CEA0E0432
:100370004FEA986848EA89184FEAE87CBCEBE83F06
:1003800018BF8CEA0E080480A0F8028002F5707293
:1003900001F580514FF000744FF000784FF00005E8
:1003A0004FF0000952F804CB0868D1F88030C0FB48
:1003B0000C45C3FB0C8952F804CB4868D1F8843053
:1003C000C0FB0C45C3FB0C8952F804CB8868D1F8FC
:1003D0008830C0FB0C45C3FB0C8952F804CBC868BD
:1003E000D1F88C30C0FB0C45C3FB0C8952F804CB10
:1003F0000869D1F89030C0FB0C45C3FB0C8952F85A
:1004000004CB4869D1F89430C0FB0C45C3FB0C8980
:1004100052F804CB8869D1F89830C0FB0C45C3FB77
:100420000C8952F804CBC869D1F89C30C0FB0C454C
:10043000C3FB0C8901984FF4FE4E4EF0FF0E4FEABD
:10044000946444EA85144FEAE47CBCEBE43F18BFB3
:100450008CEA0E044FEA986848EA89184FEAE87C6B
:10046000BCEBE83F18BF8CEA0E08A0F84040A0F8AB
:100470004280A2F57872A1F570614FF00F0C00F187
:100480000400CDF800C001904FF000744FF00078E8
:100490004FF000764FF0007A4FF000054FF0000962
:1004A0004FF000074FF0000B52F804CB52F804EB6A
:1004B0000868CB6DC0FB0C45C0FB0E67CEF1000E8B
:1004C000C3FB0C67C3FB0E45D1F8DC30D1F88000CC
:1004D000C3FB0E89C3FB0CABCEF1000EC0FB0C8935
:1004E000C0FB0EAB52F804CB52F804EB48688B6D9E
:1004F000C0FB0C45C0FB0E67CEF1000EC3FB0C67C2
:10050000C3FB0E45D1F8D830D1F88400C3FB0E8967
:10051000C3FB0CABCEF1000EC0FB0C89C0FB0EABD5
:1005200052F804CB52F804EB88684B6DC0FB0C45C5
:10053000C0FB0E67CEF1000EC3FB0C67C3FB0E457C
:10054000D1F8D430D1F88800C3FB0E89C3FB0CABC3
:10055000CEF1000EC0FB0C89C0FB0EAB52F804CBF1
:1005600052F804EBC8680B6DC0FB0C45C0FB0E676E
:10057000CEF1000EC3FB0C67C3FB0E45D1F8D030A3
:10058000D1F88C00C3FB0E89C3FB0CABCEF1000E7F
:10059000C0FB0C89C0FB0EAB52F804CB52F804EB45
:1005A0000869CB6CC0FB0C45C0FB0E67CEF1000E9A
:1005B000C3FB0C67C3FB0E45D1F8CC30D1F89000DB
:1005C000C3FB0E89C3FB0CABCEF1000EC0FB0C8944
:1005D000C0FB0EAB52F804CB52F804EB48698B6CAD
:1005E000C0FB0C45C0FB0E67CEF1000EC3FB0C67D1
:1005F000C3FB0E45D1F8C830D1F89400C3FB0E8977
:10060000C3FB0CABCEF1000EC0FB0C89C0FB0EABE4
:1006100052F804CB52F804EB88694B6CC0FB0C45D4
:10062000C0FB0E67CEF1000EC3FB0C67C3FB0E458B
:10063000D1F8C430D1F89800C3FB0E89C3FB0CABD2
:10064000CEF1000EC0FB0C89C0FB0EAB52F804CB00
:1006500052F804EBC8690B6CC0FB0C45C0FB0E677D
:10066000CEF1000EC3FB0C67C3FB0E45D1F8C030C2
:10067000D1F89C00C3FB0E89C3FB0CABCEF1000E7E
:10068000C0FB0C89C0FB0EAB01F5807101984FF4E3
:10069000FE4E4EF0FF0E4FEA946444EA85144FEA92
:1006A000E47CBCEBE43F18BF8CEA0E044FEA986888
:1006B00048EA89184FEAE87CBCEBE83F18BF8CEAAF
:1006C0000E084FEA966646EA87164FEAE67CBCEBD0
:1006D000E63F18BF8CEA0E064FEA9A6A4AEA8B1A7E
:1006E0004FEAEA7CBCEBEA3F18BF8CEA0E0ADDF861
:1006F00000C000EBCC0E2EF8026B2EF802AB20F8F7
:10070000024B20F8028BBCF1010C7FF4BAAE02B0B0
:10071000BDE8F08F2DE9F04F82B001904FF00074EA
:100720004FF0000552F804CB52F804EB0868CB6D8B
:10073000CEF1000EC0FB0C45C3FB0E4552F804CBB6
:1007400052F804EB48688B6DCEF1000EC0FB0C45EF
:10075000C3FB0E4552F804CB52F804EB88684B6D8E
:10076000CEF1000EC0FB0C45C3FB0E4552F804CB86
:1007700052F804EBC8680B6DCEF1000EC0FB0C45BF
:10078000C3FB0E4552F804CB52F804EB0869CB6C5E
:10079000CEF1000EC0FB0C45C3FB0E4552F804CB56
:1007A00052F804EB48698B6CCEF1000EC0FB0C458F
:1007B000C3FB0E4552F804CB52F804EB88694B6C2E
:1007C000CEF1000EC0FB0C45C3FB0E4552F804CB26
:1007D00052F804EBC8690B6CCEF1000EC0FB0C455F
:1007E000C3FB0E4501984FF4FE4E4EF0FF0E4FEA4C
:1007F000946444EA85144FEAE47CBCEBE43F18BF00
:100800008CEA0E04048002F5707201F580514FF0FD
:1008100000744FF0000552F804CB0868C0FB0C458B
:1008200052F804CB4868C0FB0C4552F804CB8868EA
:10083000C0FB0C4552F804CBC868C0FB0C4552F80D
:1008400004CB0869C0FB0C4552F804CB4869C0FBD7
:100850000C4552F804CB8869C0FB0C4552F804CB18
:10086000C869C0FB0C4501984FF4FE4E4EF0FF0ED8
:100870004FEA946444EA85144FEAE47CBCEBE43F1D
:1008800018BF8CEA0E040484A2F57872A1F5706199
:100890004FF00F0C00F10200CDF800C001904FF0B6
:1008A00000744FF000764FF000054FF0000752F84B
:1008B00004CB52F804EB0868CB6DC0FB0C45C0FBC1
:1008C0000E67CEF1000EC3FB0E45C3FB0C6752F85A
:1008D00004CB52F804EB48688B6DC0FB0C45C0FBA1
:1008E0000E67CEF1000EC3FB0E45C3FB0C6752F83A
:1008F00004CB52F804EB88684B6DC0FB0C45C0FB81
:100900000E67CEF1000EC3FB0E45C3FB0C6752F819
:1009100004CB52F804EBC8680B6DC0FB0C45C0FB60
:100920000E67CEF1000EC3FB0E45C3FB0C6752F8F9
:1009300004CB52F804EB0869CB6CC0FB0C45C0FB40
:100940000E67CEF1000EC3FB0E45C3FB0C6752F8D9
:1009500004CB52F804EB48698B6CC0FB0C45C0FB20
:100960000E67CEF1000EC3FB0E45C3FB0C6752F8B9
:1009700004CB52F804EB88694B6CC0FB0C45C0FB00
:100980000E67CEF1000EC3FB0E45C3FB0C6752F899
:1009900004CB52F804EBC8690B6CC0FB0C45C0FBE0
:1009A0000E67CEF1000EC3FB0E45C3FB0C6701F5CD
:1009B000807101984FF4FE4E4EF0FF0E4FEA9464A2
:1009C00044EA85144FEAE47CBCEBE43F18BF8CEAB0
:1009D0000E044FEA966646EA87164FEAE67CBCEBC1
:1009E000E63F18BF8CEA0E06DDF800C000EB8C0E67
:1009F0002EF8026B20F8024BBCF1010C7FF44CAFD7
:100A000002B0BDE8F08F000000487047AC54050804
:100A100010B5431A934209D28318881803E010F8DE
:100A2000011D03F8011D521EF9D210BD40EA010359
:100A30009B0703D009E008C9121F08C0042AFAD294
:100A400003E011F8013B00F8013B521EF9D210BD42
:100A5000D2B201E000F8012B491EFBD27047002200
:100A6000F6E710B513460A4604461946FFF7F0FFAD
:100A7000204610BD421E12F8013F002BFBD111F899
:100A8000013B02F8013B002BF9D1704730B5054618
:100A90002A460B4612F8010B13F8014B08B1A0428D
:100AA000F8D01CB1002802D06D1CF1E7284630BDFB
:100AB000CAB2401E10F8011F8A4202D00029F9D1A3
:100AC00000207047421C10F8011B0029FBD1801A3E
:100AD000704710B5002200E0521C835C8C5CA3427E
:100AE00001D1002BF8D1D8B2E1B2401A10BD30B517
:100AF00004460020034600E05B1C934203D2E05C06
:100B0000CD5C401BF8D030BD034611F8012B00F836
:100B1000012B002AF9D1184670472DE9FE4F804677
:100B200081EA0300C00F0C46009021F0004123F041
:100B30000045B8EB0200A94105D240462146904647
:100B40001C460B46024623F00040104347D0270DB9
:100B5000C7F30A00C3F30A510290401A01904028DB
:100B60006BDAC3F3130040F4801B0098924620B167
:100B70000023D2EB030A63EB0B0B01985946C0F13B
:100B80004002504600F0C1F906460D46504659460F
:100B9000019A00F0D9F910EB08006141002487EABE
:100BA000115284EAE7731A4340D0009A62B3019A63
:100BB000012A4FEA075215DC001B61EB02014FF0DE
:100BC000004202EA0752CDE90042001C41F58011C3
:100BD00032462B4600F010FA03B0BDE8F08F4046D5
:100BE0002146F9E7001B61EB0201001C41F580136F
:100BF00000185B412018A2F5001747EB030140EAFB
:100C0000D570B6196D4111E06D084FEA360645EA18
:100C1000C0754FEA0752001B61EB0201001C41F551
:100C2000801149084FEA30000019514132462B46E5
:100C300003B0BDE8F04F00F0D0B9009801224000A9
:100C40000023D0EB020263EBE073009821464FEAE9
:100C5000E074B8EB000061EB0401E9E783F00043C6
:100C60005BE781F0004158E72DE9FE4F81EA03047C
:100C700004F0004421F0004100944FF0000B23F0F9
:100C8000004350EA01045ED052EA03045BD0C3F390
:100C90000A54C1F30A552C44A4F2F3340194A0FB86
:100CA0000254C1F3130141F48011C3F3130343F45D
:100CB000801301FB024400FB034E840A970A44EAB6
:100CC000815447EA8357A4FB076802958D0A05FB08
:100CD00007854FEA932C04FB0C542705029D4FEA2D
:100CE000065847EA1637B5EB08056EEB070C870E7A
:100CF000920E47EA811742EA8312A7FB0201B6EB84
:100D00000B0164EB00042B0D43EA0C335E1844EB3B
:100D10001C50DA465146E7FB0201C5F313044FEAC3
:100D20000B3343EA14534FEA0432019C43EA0603AF
:100D3000A4F10C040294009CCDE900B400F05CF92D
:100D400003B0BDE8F08F00200146F9E72DE9F04D32
:100D500081EA030404F0004B21F0004514464FF0F3
:100D6000000A23F0004150EA050220D054EA0102B3
:100D70001DD0C5F30A570246C5F31303C1F3130090
:100D8000C1F30A5640F4801543F48013A7EB06081C
:100D9000101BD64608F2FD3873EB050002D308F1AC
:100DA000010801E092185B41B8F1000F03DA00205E
:100DB0000146BDE8F08D00204FF4801106468446C0
:100DC0000EE0171B73EB050705D3121B63EB05033E
:100DD00006434CEA010C49084FEA300092185B4187
:100DE00050EA0107EDD152EA030012D082EA040072
:100DF00083EA0501084305D0101BAB4106D201224E
:100E0000002306E000224FF0004302E06FF00102F1
:100E100053101AEB06004CEB085110EB0A0041EBA3
:100E20000B01BDE8F04D00F0D8B80EB540F23341EB
:100E300002910021CDE900110A460B4600F0DCF8D2
:100E400003B000BD01F0004330B421F0004150EA8E
:100E5000010206D00A0DA2F56072C1F31301002A47
:100E600002DC30BC00207047440F44EAC104C100DA
:100E7000E01830BC00EBC25000F078B830B50B463B
:100E8000014600202022012409E021FA02F59D42BA
:100E900005D303FA02F5491B04FA02F52844151E8E
:100EA000A2F10102F1DC30BD2DE9F05F0546002022
:100EB00092469B4688460646814640241BE02846CB
:100EC00041464746224600F02FF853465A46C01A7C
:100ED000914110D311461846224600F016F82D1AFB
:100EE00067EB01084F4622460120002100F00DF873
:100EF00017EB00094E41201EA4F10104DFDC484637
:100F000031462A464346BDE8F09F202A04DB203ABA
:100F100000FA02F1002070479140C2F1200320FA4C
:100F200003F3194390407047202A04DB203A21FA4A
:100F300002F00021704721FA02F3D040C2F12002F2
:100F40009140084319467047202A06DBCB17203A08
:100F500041FA02F043EAE07306E041FA02F3D040BE
:100F6000C2F1200291400843194670470029A8BFEA
:100F70007047401C490008BF20F00100704710B4C2
:100F8000B0FA80FC00FA0CF050EA010404BF10BC77
:100F9000704749B1CCF1200421FA04F411FA0CF1A4
:100FA00018BF012121430843A3EB0C01CB1D4FEADD
:100FB00000614FEA102042BF002010BC704700EBD8
:100FC000C35010440029A4BF10BC7047401C490006
:100FD00008BF20F0010010BC704710B5141E73F15B
:100FE000000408DA401C41F1000192185B411A43E9
:100FF00001D120F0010010BD2DE9F04D92469B4635
:1010000011B1B1FA81F202E0B0FA80F220329046DA
:10101000FFF77BFF04460F4640EA0A0041EA0B0156
:1010200053465A46084313D0114653EA010019D0DB
:10103000C8F140025046FFF777FF05460E4650467E
:1010400059464246FFF761FF084305D0012004E0FE
:1010500020463946BDE8F08D0020054346EAE0769B
:101060002C4337430A986305E40AA0EB08000022EA
:10107000FD0A44EA47540A3002D500200146E9E758
:10108000010510196941DDE9084500196941BDE80C
:10109000F04DA2E7C1F30A52C1F3130140F2FF334E
:1010A00041F480119A4202DA00200146704740F272
:1010B00033439A42A2F2334202DC5242FFF734BF7A
:1010C000FFF723BF30B5041E71F1000404DB4FF0BD
:1010D0000044404264EB0101141E73F1000405DB7F
:1010E0001C464FF00043524263EB0403994208BF91
:1010F000904230BD064C074D06E0E06840F0010329
:1011000094E8070098471034AC42F6D3FFF756F83E
:10111000C0670508E067050870B58C1810F8015B1A
:1011200015F0070301D110F8013B2A1106D110F880
:10113000012B03E010F8016B01F8016B5B1EF9D184
:101140002B0705D40023521E0DD401F8013BFAE70A
:1011500010F8013BCB1A921C03E013F8015B01F875
:10116000015B521EF9D5A142D8D3002070BD00000A
:1011700010B52C4C20780128204618D002F020F819
:101180002078012818BF10BD61882748A1F15B02B3
:101190003B2A10D2E388C82B0DD9B3F5827F0AD23F
:1011A000017803290CBF0B210C21017010BDBDE893
:1011B000104002F005B8A1F28B213B2906D2E3884A
:1011C000642B03D9A02B38BF0621EED33B2A06D2CD
:1011D000E388642B03D9A02B38BF0721E5D33B2933
:1011E00007D2E388C82B04D9B3F5827F38BF0A2120
:1011F000DBD33B2A08D2E288B2F5967F04D9B2F558
:10120000B47F38BF0E21D0D33B2928BF10BDE18861
:10121000B1F5967F98BF10BDB1F5B47F3CBF0D21ED
:10122000017010BD9CE800200C01002001480088DE
:101230007047000010010020704708F06BBA0000F2
:1012400010B584B00A4600218DF80C100146012328
:1012500003A8CDE900034FF47A7CCDF808C0064816
:1012600003F05CFF20B1044803F0B6FE08F052FA28
:101270009DF80C0004B010BD8C03002017B583B09E
:101280000A460146012305A8CDE900034FF47A7C04
:10129000CDF808C0064804F0A3F8002804BF06B043
:1012A00010BD034803F098FE08F034FA06B010BDF4
:1012B0008C030020064810B540684BF68032C1B25E
:1012C000042000F0F1FB002818BF012010BD000031
:1012D0004801002070B58448002582B000780F28AE
:1012E0004BD2DFE800F04A4A4A084A4A829D4A4AFD
:1012F0005DACC8E1F8007D4C9721B4F9000010FB0B
:1013000001F17B4A12F81110C9B17A49C0B20978CB
:1013100008F0CCFC08F064FD774C04F1080160682B
:101320004968884205D3022000F04EFD6E49062030
:1013300008702078012812D0022822D01DE00AF07F
:1013400093F86C4906462078097808F0AFFC08F05D
:1013500047FD012E11D16449062008700DE001AB54
:101360004FF480526549664811F03CFF90B9002067
:1013700020706068019908446060FFF7F9FE00F092
:10138000A6B801AB4FF480525E495D4811F02AFFC8
:101390000028ECD0022000F017FD02B0012070BD43
:1013A00059A00DF055FE4FF07F40002100903C23E6
:1013B0004FF44872084608F029FC5B4801F09AFA9D
:1013C0003C231A46C82140F28A2001F089F8022005
:1013D00000F0FAFC444900200125087018F0ECFFE9
:1013E0000BF07CFD18F0E8FF71E050A00DF030FE2E
:1013F000FFF71CFF3D4C01462088401C00B22080B6
:101400008142D8BF002003DD012808BF022000D19F
:101410002080022000F0D8FC207800F0C9F856E0C7
:101420004AA00DF015FE314C2088401E00B22080ED
:101430000028EEDAFFF7FAFE401E2080E9E74CA014
:101440000DF006FE0221002008F0A4FD364801F050
:1014500051FA3C230F22C8215A2001F041F83C23C5
:101460000F22C821822001F03BF800F03BFC1E490E
:10147000012008702BE046A00DF0EAFD01210020BC
:1014800008F088FD3C230F22C8215A2001F028F8DB
:101490003C230F22C821822001F022F800F05AFCE0
:1014A00011490320087012E0104C60685A289CBF54
:1014B00060680A3000D860606068C0B200F074FCF8
:1014C0006168012008F066FD07490320087002B03A
:1014D000284670BDFFE7054C60680A2824BF606895
:1014E0000A38E9D3E7E700000C010020480100209A
:1014F000B00B002022010020A8080120A8E800204D
:10150000F8080120A8F80020417564696F537461E0
:1015100074653A415544494F5F53544154455F53B4
:10152000544F500A000000000000FFFF417564693D
:101530006F53746174653A415544494F5F53544148
:1015400054455F4E4558540A0000000041756469D7
:101550006F53746174653A415544494F5F53544128
:1015600054455F50524556494F55530A00000000FC
:10157000417564696F53746174653A415544494FCC
:101580005F53544154455F50415553450A00000094
:10159000417564696F53746174653A415544494FAC
:1015A0005F53544154455F524553554D450A000021
:1015B0002DE9F041054682B0744811F0EAFA0EF0C8
:1015C0006BFEFFF733FEA84240F2AC8070A00DF036
:1015D0003FFD734873A10A6802604A684260098946
:1015E0000181972015FB00F6714C04EB4600411C6D
:1015F0006B48FFF73FFA6A496EA00DF029FD012202
:101600006749624811F0BEFC804601466DA00DF0AE
:101610001FFD714FB8F1000F37D114F816106FA0ED
:101620000DF016FD14F8160010B101280CD045E09D
:101630006FA00DF00DFD734901AB1C2201F11C00E0
:1016400011F0D0FD80461AE06FA00DF001FD624957
:1016500001AB2C2201F1480011F0C4FD8046F9696C
:101660007868B0FBF1F06D49A1FB00214A09A2EBBB
:10167000021100EB81036AA16C480DF0F9FCB8F18E
:10168000000F1BD0414811F084FA0121002008F01E
:1016900081FCDFF89C81D8F80410012008F07AFC66
:1016A00008F0C8FC0021394811F0C0FA14F81600FF
:1016B000604E032478B1012826D033E0284602F09A
:1016C000E7F95D4908705D49012008705C490870C0
:1016D0005C490870D9E75CA00DF0BAFC08F052FA3A
:1016E00001F0D8FE347000F011F95DA00DF0B0FCEF
:1016F00028460BF013FD284608F074FE08F098FA0F
:1017000002B00020BDE8F0815FA00DF0A1FC6B46A7
:101710004FF4005262491D4811F064FD30B161A0E0
:101720000DF096FC02B00120BDE8F081347000F0AD
:10173000EDF800990029F5D061A00DF089FCBC6995
:1017400067A021460DF084FCD8F804002246C1B2FF
:10175000032000F0A9F9002804BF052000F010FBC9
:101760004FF400514E4800F0D3FA014661A00DF04D
:101770006FFC654900984860FF200BF0CFFC08F033
:1017800057FA02B00020BDE8F0810000F8080120FF
:101790006765742066696C652069666E6F0A000073
:1017A000AA810020303A2F6D757369632F00000005
:1017B000B00B002046696C655F70617468203A2543
:1017C00073200A006F70656E2066696C6520726513
:1017D00074203A25640A0000B008012066696C652F
:1017E00020747970652069732025640A0000000068
:1017F00066696C65206973206D703320747970653B
:10180000200A0000DC08012066696C6520697320ED
:101810007761762074797065200A0000898888884D
:101820002F253032643A253032640000EC820020EB
:10183000480100200C010020220100201F0100208F
:101840002001002021010020666972737420706CF1
:1018500061792061206D70332066696C65200A0013
:101860006368616E6765206D70332066696C652002
:101870002C206E657874206F722070726576696FA7
:101880007573200A00000000666972737420706C22
:1018900061792061207761762066696C65200A0095
:1018A000A8E80020706C6179207761762066696C09
:1018B000652072656164206572726F72200A000093
:1018C0006273705F617564696F5F6F75742C2062FD
:1018D00079746573726561643D2523780A000000A0
:1018E000617564696F2066726571203A20256420F5
:1018F0000A0000006273705F6F7574207265743A3D
:101900002025640A00000000A808012010B52B481B
:1019100000F0E2FF6FF47F0000F0ECFF03212848A5
:1019200000F040FD3C230A2264215A2000F0D8FD3B
:101930000321244800F036FD3C230A22642140F2B2
:10194000BD2000F0CDFD3C230F22C8215A2000F01D
:10195000C7FD3C230F22C821822000F0C1FD3C239B
:101960001A46C82140F28A2000F0BAFD3C231A46EC
:101970004FF496715A2000F0ADFC032312A24FF4ED
:1019800096715A2008F058FB3C231A464FF4967182
:1019900040F28A2000F09EFC03230CA24FF49671C3
:1019A00040F28A2008F048FB4FF0FF2000F0A2FF31
:1019B000BDE81040014800F08FBF0000C4000020C7
:1019C0005C010020500100202D0000002B000000D1
:1019D00010B5084890F8F80530B10748018807A00D
:1019E0000DF036FB002010BD07A00DF031FB0120EB
:1019F00010BD0000B07B0020100100206E756D6FDF
:101A00007362203A2564000073686F7720776176EF
:101A10002066696C6573206572726F720000000049
:101A200010B590B00C46684604F01AFF0220A4F5E9
:101A30002C5111391FBFA4F5AC41B1F12201A4F51D
:101A40002C41B1F144010CD000904FF4AC700190E6
:101A50000720039001200890684604F085FF10B02D
:101A600010BD40F2AD11CDE90001039013200890A4
:101A7000684604F079FF10B010BD70470648007842
:101A8000032818BF704701200449087004490870F2
:101A900004490220087070470C010020A8080120AA
:101AA00031010020300100202DE9F0473E4C3D4D32
:101AB00082462560286816468946002720F4803033
:101AC0002860204605F0C6FE002231462046FFF77A
:101AD000A7FF2046256005F0E3FE18B90021204647
:101AE00000F06AF8256028684FF0000820F4803084
:101AF00028604FF48010C4E90706C4F804808021F0
:101B0000C4F81480C4E90D81C4F83C80C4F8408056
:101B10008901C4F8088021610121A161402161642B
:101B20002021A1644046C902C4E913108900C4E918
:101B30001510E065042020660F2060661A4805F045
:101B4000B3FE002818BF4FF001082068016841F477
:101B500080310160B8F1000F20D1144C9420A168AD
:101B60008847E0281AD1124D00220421284603F0AC
:101B700028FA052003F0CFF801220421284603F0BB
:101B800020FA052003F0C7F80A4833464A46446065
:101B9000D4F800C051469420E04700B101273846F0
:101BA000BDE8F08704580140A00400200C0200208A
:101BB00000100240280000202DE9F04F424C07465B
:101BC00087B02068002540F01000206020684FF0AA
:101BD000040800F01000CDF80080059003260120D5
:101BE0000396CDE90105DFF8E4B06946584603F0F5
:101BF000B1F801220421584603F0E3F934480168A2
:101C000041F480010160006800F4800005902068C4
:101C100040F040002060206800F0400005902068FF
:101C200040F01000206020684FF0020900F0100022
:101C300005908020CDE90009CDE902564FF0060A53
:101C40006946CDF810A0234803F084F87020CDE950
:101C50000009CDE902566946CDF810A0584603F0B8
:101C600079F8206840F48000206020681A4900F468
:101C700080000590386888421BD118484021C0E98F
:101C800001510901C0E903514900416189008161A5
:101C90004911C161C0E90A6549020563C0E9081834
:101CA0000F4901603867876302F0B6FA0B4802F00B
:101CB000E7FB00220521392003F0BCFD392003F0A9
:101CC000AAFD07B0BDE8F08F303802400010024096
:101CD000443802400018024004580140E00300204C
:101CE00028640240084810B5406800240169942027
:101CF000884708B1012404E0044805F057FD002896
:101D0000F8D1204610BD000028000020A0040020CB
:101D100070B506460D480C46002540688AB231462B
:101D2000C3689420984708B101250CE0B4F5003F42
:101D300034BF60084FF6FF7082B23146044805F0A8
:101D400083FE0028F0D1284670BD00002800002046
:101D5000A0040020084810B5406800244169942080
:101D6000884708B1012404E0044805F032FD00284A
:101D7000F8D1204610BD000028000020A00400205B
:101D800010B5084C21680A6822F480320A60606647
:101D9000204605F089FD2068016841F4803101602A
:101DA00010BD0000A00400200146064810B54068A0
:101DB0000024026A94209047002818BF012420467E
:101DC00010BD00002800002070B505460A48002418
:101DD0002946406882699420904708B1012409E0AF
:101DE000012D04BF022002F096FF044805F00DFD0E
:101DF0000028F3D1204670BD28000020A004002058
:101E000006480078032818BF704702210448017073
:101E10000449012008700449087070470C01002033
:101E2000A808012031010020300100202DE9F843ED
:101E30001B491C4B04468D68D1E9006805EB8502FF
:101E400002EBC50203EB8202A3F140004FF44031E4
:101E5000D76D416000218160C1601349016002F0CB
:101E600097F8002818BFBDE8F88329460F4802F00C
:101E700027F8002818BFBDE8F88333463A462146C4
:101E80000A48CDF8008002F056F9002818BFBDE8D6
:101E9000F8830A21BDE8F843044802F0A7B800001F
:101EA000B0000020F806002000B00240B806002074
:101EB0002DE9F84F254E264DD6F80880A5F1C40C23
:101EC00008EB480105EB810255F821B0D2F80490E7
:101ED00045F82190926808EB880303EBC803D48887
:101EE0000CEB8303604382B230680021DB6D00FBA2
:101EF000021187B203EB810AC11BA5F582704FF472
:101F0000403242600022C0E902211249016002F021
:101F10003FF898B94146A5F5827001F0D1FF68B944
:101F20003B4652464946A5F58270009402F003F9FB
:101F300020B90A21A5F5827002F058F8B06800EBCC
:101F4000400045F820B0BDE8F88F0000B000002048
:101F5000BC07002000B0024008B5002000900448F3
:101F600029231522016800F5AA7002F086FE08BD3B
:101F70004C0600202DE9FF4F85B00021079A019102
:101F800012F801CBBCF1000F06D000BF12F801CB54
:101F9000491CBCF1000FF9D15A4A5B4E012BD2F813
:101FA00000C0926802EB420406EB8404A468A58892
:101FB000BCFBF5F404D0022B18BF009007D00BE057
:101FC000611A694300EB510080B2009004E0611A8D
:101FD0006943081A80B2009047F6FF71401E88429C
:101FE00024BF0120009002EB8200484900EBC200B0
:101FF00001EB800702EB420B01F1C40000EB8B0602
:1020000007980578002D04BF09B0BDE8F08FB168CE
:10201000019A888802FB10C292B2904284BF09B034
:10202000BDE8F08F009BCC88D1F80080C11D069AD6
:102030004FEAD10A203D1AFB05F504FB0585039400
:1020400021F00704241A04F0FF080495039C0025DE
:10205000002C84BFC908029146D9049C01FB0541AC
:10206000029C012C08BF0C780CD0022C04BF0988FC
:102070004CBA07D00C784FEA04494C78897849EA81
:1020800004240C430021002826D900BFA0EB01093D
:10209000C144A9F1010A4FF0010909FA0AF919EA44
:1020A000040F03EB01091FFA89FA0AD0DFF85890F0
:1020B00002FB0CAAD7F85CE059F82B904EF82A9056
:1020C00007E002FB0CAAD7F85CE0D6F804904EF8C3
:1020D0002A90491C8142D9D3511C8AB203996D1CA4
:1020E0008D4238BF0299B8D3B068818800980844FF
:1020F00080B200900798401C07900198401C80B265
:1021000001907DE7B0000020BC070020F806002009
:102110002DE9F8431F4B204D16469C681B6804EBC5
:10212000840C0CEBC40C05EB8C0C03FB0100DCF8FD
:102130005CC01A490CEB800504EB4400012751F800
:10214000208017484FF44031416000218160C16018
:102150001449016001F01CFF002818BFBDE8F88396
:1021600021460F4801F0ACFE002818BFBDE8F883F7
:1021700033462A4641460A48009701F0DCFF002812
:1021800018BFBDE8F8830A21BDE8F843044801F010
:102190002DBF0000B0000020F8060020BC07002082
:1021A000B806002000B002402DE9F04F0025A2EB58
:1021B000000C82B0BCF1000FD8BFA0EB020C0FFAEC
:1021C0008CF8A3EB010CBCF1000FD8BFA1EB030C02
:1021D0000FFA8CF704B20FFA81FC82422CBF012067
:1021E0004FF0FF3001902CBF01264FF0FF368B429D
:1021F0002CBF01204FF0FF3000902CBF01234FF087
:10220000FF33B84508DB002008EBD8710346019086
:102210004A104046394606E0002607EBD7714A10BF
:102220003846414600960028BCBF02B0BDE8F08F9A
:10223000DFF86880D8F80870D8F800A007EB470BE3
:1022400007EB870808EBC707DFF8548008EB870E19
:102250001FFA84F91FFA8CF808FB0A98114FDEF870
:102260005C9057F82B7049F828700A4412B28242E9
:1022700008DB019F121A3C44009F12B2BC4424B2F6
:102280000FFA8CFC6D1C34449C442DB224B20FFA1E
:102290008CFC8542DCDD02B0BDE8F08FB000002090
:1022A000F8060020BC070020084BD3F800C001FB53
:1022B0000C00996801EB810303EBC101044B03EBB4
:1022C0008101C96D41F8202070470000B000002056
:1022D000F80600202DE9F0411C4615460E4607463B
:1022E000FFF716FF301981B22A463846FFF710FF74
:1022F00022463146384600F009F878192246314620
:10230000BDE8F04180B200F001B800002DE9F843CB
:102310001F4B204D16469C681B6804EB840C0CEB8D
:10232000C40C05EB8C0C03FB0100DCF85CC01A4A02
:102330000CEB800504EB4400591E52F8208017482E
:102340004FF44032012742600022C0E902211449C3
:10235000016001F01DFE002818BFBDE8F88321468A
:102360000E4801F0ADFD002818BFBDE8F8833B46DC
:102370002A4641460948009601F0DDFE002818BFB4
:10238000BDE8F8830A21BDE8F843044801F02EBEF9
:10239000B0000020F8060020BC070020B80600208E
:1023A00000B002402DE9F34F038804460025408821
:1023B000A1F1010A85B0A9469C460246BAF1000F78
:1023C0001BDD04F10408A71D4FEA0A0BB8F90060F1
:1023D0006645B8BF1FFA86FC9E42C8BFB3B2B7F9C4
:1023E00000609642B8BFB2B28642C8BFB0B23F1DCD
:1023F00008F10408BBF1010BE8D102293CBF07B08A
:10240000BDE8F08F0CEB0301104440F34F00049043
:10241000B4F900000290B4F9020003901FFA8AF0A8
:1024200041F34F06002806901CBF04981FFA80F85D
:102430002FD000BF34F802BBB2B234F802AB1FFA9F
:102440008BF0B4F90290B4F900501FFA89F7CDE986
:1024500000781FFA8AF3A9B201F005FACDE90087E6
:102460001FFA8AF3AAB2B1B21FFA8BF001F0FBF99E
:102470001FFA8AF0CDE900701FFA8BF2A9B2B0B250
:10248000434601F0F0F90698401E0004000C069047
:10249000D0D104981FFA89F487B20398CDE9004798
:1024A00083B20298B2B2A9B280B201F0DCF903980B
:1024B000CDE9007483B20298AAB2B1B280B201F041
:1024C000D2F90398A9B280B2CDE9004002983B4608
:1024D00082B2B0B201F0C7F907B0BDE8F08F0000DA
:1024E0002DE9F843DFF884C0214D224FDCF8084085
:1024F000DCF800C004EB44060CFB010055F8266034
:1025000004EB840505EBC40507EB85059046ED6DEE
:102510004FF4403205EB80071748ACEB08011D462D
:1025200042600022C0E902211449016001F030FD3F
:10253000002818BFBDE8F88321460F4801F0C0FC11
:10254000002818BFBDE8F88343463A4631460A489A
:10255000009501F0F0FD002818BFBDE8F8830A21BE
:10256000BDE8F843044801F041BD0000B000002080
:10257000BC070020F8060020B806002000B002408A
:102580000148006870470000B0000020012000F002
:1025900001B800002DE9F0470746714890B046F6B3
:1025A00025350168002441F08001016000686D4E0E
:1025B00000F080000F9080200A901120CDE90B04DC
:1025C00003200D900AA9304602F0C4FB00228021AE
:1025D000304602F0F6FC142002F09DFB012280211F
:1025E000304602F0EEFC0A2002F095FB00F008F9FC
:1025F0005E4E5D483060304602F0EEF97D204FF0CF
:1026000002080394CDE901080121F1604FF2244052
:1026100043F60451B0FBF1F0B06001A9304602F07E
:102620000DFA534E4FF4F0704FF44871002F0CBF69
:10263000C6E90001C6E900100C234E4AD6E9009C09
:102640004FF0050AC2E9004A1462D461C2F80C8056
:10265000546240F6FF78C2F81090C2E90548DFF8EE
:1026600018811846B8FBF5F8C2F82880DFF80C810D
:102670001946B8FBF5F8C2F82C80C2E90E014FF4F8
:102680000040C2E910C01020C2E9120440021065E7
:102690004010506509F22F1840104FF22449906500
:1026A00008FB09F84010B8FBF5F5D065401010663E
:1026B00040105066C2E90C53114601F5AA7002F0B1
:1026C0002FF82320049005900690CDE907040A20F6
:1026D000099004A9254801F0D9FF294D3E206861E1
:1026E000B620E861306800F1B60169627831E962CC
:1026F000286670686866A5F1E800082101604FF45B
:10270000C071016107218462C16104F02DF985F86F
:10271000344085F8354085F836401A482C61A5F1DB
:10272000AC01286001F1AC0003F01BF8284602F070
:1027300091FF05F1A80002F0D7FA00F065FAB16840
:1027400005F1C40201EB410102EB81010E488860F2
:102750003946002008F02EFF10B00020BDE8F087B9
:1027600030380240001C0240006C0140A0070020ED
:10277000B00000204C060020DC143C00E070720029
:10278000F806002000680140BC00002010B5044697
:102790008EB01748002300930268CDE901234068FA
:1027A0000991CDE90303FF21CDE905138DF8303000
:1027B0008DF831308DF832304FF4C061CDE90A2008
:1027C000079107210891224669460A4802F016FF40
:1027D000094904EB440001EB80024FF0FF335360E2
:1027E000064B93604FF07F4241F820200EB010BDA1
:1027F000B0000020F8060020BC070020BC0000202C
:10280000274908B5086840F080600860086800F053
:10281000806000902348026842F080620260026893
:1028200022F080620260204A136843F400031360C0
:10283000126802F4000200921C4A136843F4000379
:102840001360136823F4000313600A6842F0006207
:102850000A60096801F000610091016841F00061BF
:102860000160016821F0006101600022032158200D
:1028700002F0E0FF582002F0CEFF002203215A2090
:1028800002F0D8FF5A2002F0C6FF002203215C208C
:1028900002F0D0FFBDE808405C2002F0BCBF0000A1
:1028A0004438024024380240303802401038024098
:1028B0000149886070470000B00000200449054AC3
:1028C000896801EB410102EB81014860704700001B
:1028D000B0000020BC0700200449054A896801EBCC
:1028E000410102EB8101886070470000B0000020C8
:1028F000BC0700200349044A896801EB410142F802
:1029000021007047B0000020BC070020032888BFCA
:10291000704770B51E4D040086B055F82400009035
:102920004FF00100019002904FF00300194903900D
:1029300006D0012C18BF022C0AD0032C10D017E0AF
:10294000086840F040000860086800F040000EE0B1
:10295000086840F008000860086800F0080006E019
:10296000086840F480600860086800F480600590A2
:10297000094E694656F8240002F0ECF935F82400B7
:10298000012281B256F8240002F01BFB06B070BD94
:10299000080000203038024018000020032888BFBB
:1029A00070470449044A31F8201052F8200089B2D7
:1029B00002F003BB08000020180000202DE9F041C0
:1029C000474D90B045482860284603F002FED0B934
:1029D0000021284600F086F8012710206F60C5E925
:1029E00002704FF0807898FAA8F0B0FA80F0401E9C
:1029F00028613E020024C5E90564EC6128462C628A
:102A000003F006FE18B110B00120BDE8F081CDE959
:102A100006646620324D00900894099405940B9446
:102A20000C9441F28832694628460D9403F088FDE3
:102A300000284FD19920009041F2883269462846FB
:102A400003F07EFD002845D141F28831284608F088
:102A5000F9FF00283ED18520CDE906640090CDE93C
:102A600008480594CDE90A740C9441F2883269460D
:102A700028460D9403F064FD60BB41F288320EA934
:102A8000284603F025FE28BB284609F04FF908BB6D
:102A90008120F022009092FAA2F29DF838000A21DB
:102AA000B2FA82F2914020F0F00008438DF838002D
:102AB00041F288326946284603F042FD50B941F29E
:102AC00088320EA9284603F069FE002804BF10B022
:102AD000BDE8F081042010B0BDE8F081001000A036
:102AE000D407002070B52B4886B00025016841F05E
:102AF00002010160006800F00200059026480168AC
:102B000041F002010160016821F0020101602348E7
:102B1000016841F002010160016801F002010591C4
:102B2000016841F02001016000680A2400F02000E3
:102B30000590402000900220019001200290032087
:102B4000CDE903046946164802F004F94FF48060A9
:102B50000295144E0090092569463046049502F00E
:102B6000F9F84FF44070009069460494304602F042
:102B7000F1F8C020009069460495304602F0EAF86A
:102B800000220F215B2002F055FE5B2002F043FE85
:102B900006B070BD38380240183802403038024064
:102BA000000402400014024010B58EB004464FF4F9
:102BB00080700690EB2000904FF4406007904FF437
:102BC00000500191039000214FF04070CDE90810B2
:102BD0000A200590CDE90A210C910D9141F288322D
:102BE0006946084803F0ACFC48B941F288322146F6
:102BF000044803F06DFD002804BF0EB010BD012095
:102C00000EB010BDD407002070B51C481A494FF013
:102C1000040C016000F1340102220723C1F808C04E
:102C2000C1E90023C1E903324A618A61002444609A
:102C300020218460C0E90341402141614FF4C0710B
:102C4000C0E90614910201624900C0E90914214655
:102C500000F062F80A49A1F1340004F057FF094D71
:102C600000281ABF012028702C7040F2695000F033
:102C70000BF8287870BD0000400100A0100B002068
:102C8000440B0020CC0000202DE9F843214C002704
:102C9000012510260097C4E90056C4E90257804672
:102CA00021464FF6FF72A1F1500004F063FF0120AE
:102CB00002F031F80220C4E90006C4E902572146B7
:102CC0004FF6FF72A1F1500004F054FF0320C4E955
:102CD00000060820C4E9020721464FF6FF72A1F161
:102CE000500004F047FF4FF40C7204200092C4E936
:102CF0000006C4E9025221464FF6FF72A1F15000CE
:102D000004F038FF4146A4F15000BDE8F84304F058
:102D10001FBF0000600B0020002808BF704730B5BF
:102D20000546554887B00024016841F00101016063
:102D30000068524900F001000590086840F48000E6
:102D40000860086800F480000590086840F00400FE
:102D50000860086800F004000590086840F008006A
:102D60000860086800F008000590086840F010004E
:102D70000860086800F010000590086840F0200026
:102D80000860086800F020000590086840F04000E6
:102D90000860086800F040000590086840F0800076
:102DA0000860086800F080000590086840F48070B2
:102DB00008600868012100F4807005900220CDE9C8
:102DC000010103900C200091049069462C4801F009
:102DD000C1FF4CF20370009069462A4801F0BAFF27
:102DE0004FF6837000906946274801F0B3FF4FF615
:102DF0003F0000906946254801F0ACFF48F23310CF
:102E000000906946224801F0A5FF4FF60C70009033
:102E10006946204801F09EFF40F2FF60009069463D
:102E20001D4801F097FF1D498020C1E90140800045
:102E3000C86040000861800048618000C1E9060464
:102E4000C000C1E908040320C1E90A0414480C6366
:102E50000860296308468D6301F0DEF90F4801F030
:102E60000FFB00220521382002F0E4FC382002F09C
:102E7000D2FC07B030BD0000383802403038024084
:102E800000080240000C0240001002400014024002
:102E900000180240001C024000200240500A00209E
:102EA000106402400148806D01F0F6B998090020D5
:102EB0000148C06D01F0F0B9980900200C4800B538
:102EC000026887B0002142F040020260006800F012
:102ED000400005900420CDE900010120029003206C
:102EE00003906946034801F035FF07B000BD0000BC
:102EF00030380240001802400146014804F02ABF61
:102F000098090020014804F0FCBE00009809002048
:102F1000014805F07FB800009809002038B51C4929
:102F200000251A48C1E900058D604FF48040CD604E
:102F3000C1E904508D612C4629461548FFF7BEFFB4
:102F400001208DF800000421124802F031F8012818
:102F500008BF8DF800409DF8000001281CBF02202A
:102F600038BD00210A4800F02BF80B49A1F16000A0
:102F700005F098F808B1012506E04FF40061044817
:102F800005F0E4FB0028F6D1284638BD002C0140AE
:102F90009809002000180240F809002008B5012017
:102FA0008DF800000421054802F002F8012804BF52
:102FB00000208DF800009DF8000008BD00180240B8
:102FC0002DE9F04F0446484887B00025016841F4D8
:102FD00000610160006800F40060059043480168EA
:102FE00041F480010160016801F4800105910168EC
:102FF00041F004010160016801F0040105910168DC
:1030000041F0080101600068032600F00800059007
:10301000022001900120CDE902060C2004904FF41B
:10302000F85000906946324801F094FE0427694642
:103030003048009701F08EFE00220521312002F079
:10304000F9FB312002F0E7FB2B484FF000684FF40A
:10305000805AC0E901854FF4804B2021C0F814A0AC
:10306000C0E906B13104C0E908177905C0E90A6171
:103070008910016321494FF480690160C0E9035957
:10308000A065846301F0C8F81B4801F0F9F91C48F9
:10309000402100F1080282E8220E2021C1613104A2
:1030A000C0E908177905C0E90A618910016315496B
:1030B000C0E90018E065846301F0AEF8104801F043
:1030C000DFF9002206213B2002F0B4FB3B2002F096
:1030D000A2FB00220621452002F0ACFB452002F0B5
:1030E0009AFB07B0BDE8F08F443802403038024008
:1030F00000080240000C02401808002058640240FA
:1031000078080020A064024010B582B00146DDE9D5
:10311000044CCDE9004C044805F0AFF9002818BF75
:10312000012002B010BD00009809002010B582B047
:103130000146DDE9040CCDE9000C0024074805F048
:103140008BFA08B1012405E00549044804F029FD83
:103150000028F7D102B0204610BD000098090020D9
:1031600000E1F50510B582B00146DDE9044CCDE97A
:10317000004C044805F086FB002818BF012002B06F
:1031800010BD00009809002010B582B00146DDE9AD
:10319000040CCDE9000C0024074805F095FC08B1AB
:1031A000012405E00549044804F03FFD0028F7D15B
:1031B00002B0204610BD00009809002000E1F5058E
:1031C0002DE9F04F83B08046334F0020009078689F
:1031D00001693878884788F80000002818BF002463
:1031E00056D9DFF8B89040F2DF1B01AE02AD09F10D
:1031F000080A00BF786805EB440206EB4401436906
:1032000038789847787810F0080F07D036F81410FF
:1032100035F8142026F8142025F8141010F0020FA9
:1032200007D036F8142040F21F31A1EB020126F836
:10323000141010F0040F05D035F81400ABEB0000AB
:1032400025F8140036F8140059F8241088428CBF71
:10325000411A091A8BB235F814105AF824209142F9
:103260008CBF8A1A521A92B21A44052A84BF49F8AE
:1032700024004AF8241039F8241008EB4400418057
:103280003AF82410C18098F80000641CA042B1D81C
:10329000009803B0BDE8F08FD0000020D8000020D7
:1032A0002DE9F041104D114C0F468046296800264B
:1032B00020788847696854208847112818BF03265A
:1032C00002D03046BDE8F081542065602070B845DA
:1032D00034BF01210C216170A96888476068C1680A
:1032E00020788847EDE7000040020020D000002051
:1032F00001A00BF0ADFEFBE74275734661756C747F
:10330000206572726F720A000029D8BF704711F0F1
:10331000010F4FF00002A0F1010018BF00F8012FCB
:10332000491008BF7047427000F8022F491EFAD1B9
:10333000704700F510614FF4107200F5905031F8AD
:10334000023D20F8043C31F8023920F8023C0B8899
:1033500020F8083D0B884380521EF0D170470000D2
:103360000148806B00F098BF28050020F0B4D0F829
:1033700000C0049CDCF844502C4E05F0404596FA01
:10338000A6F6B6FA86F6B34023432B43CCF8443076
:103390000368DA634268B2F5403F1FBF0068C1604E
:1033A000F0BC704701F07F4C01F47F4201F47F07CD
:1033B00083683A4301F47F0601F47F44CDB2002BC9
:1033C00004BF42EA0C0129431AD0012B08BF42EA8C
:1033D000050115D001F47F02D20CC1F3C401022B08
:1033E00012D0032B15D04FEA1C714FEA143C320D5A
:1033F0004FEA0C1C4CEA022242EA013141EA151163
:1034000000688163F0BC7047A30A5B0143EAC222F3
:1034100009E04FEADC734FEAD42C4FEA4C1C4CEA2B
:10342000822242EAC3321143EAE700000000FF3F74
:103430000148006F00F030BFA0040020FFF732BD4C
:10344000FFF736BD00B583B0012809D84878009051
:103450000B7815220021084801F00FFC03B000BDD5
:103460000A5CCDE90021034639220021024801F01F
:10347000A1FB03B000BD0000A007002001A00BF0DD
:10348000E7FDFBE764656275676D6F6E20657272BC
:103490006F720A0030B583B001AB4FF47A624B49CA
:1034A0004B480FF09FFE0198002829D0474C03227B
:1034B00048492046FDF71BFB38B1002144480FF076
:1034C000B5FB45480BF0C4FD1AE0A079E179400650
:1034D000000901F07F0100EB8130217A01F07F01CA
:1034E00000EBC110617A01F07F01084400F10A0489
:1034F00021463A480BF0ACFD214635480FF096FBCB
:10350000374C01206B4620700020A0602F48E060FF
:1035100001464FF47A622E480FF064FEA0680099CD
:10352000421830A13348A2600BF0A2FD31480BF0E5
:103530008FFD0098002804BF03B030BD2E482061E5
:1035400007F0B2FF2D48206107F0AEFF2C4DA868B0
:1035500000EBD07042102B480068C1B20420FEF787
:10356000A3FA58B928480BF073FD4FF410512248C4
:10357000FEF7CEFB014625480BF06AFD244829687A
:103580000BF066FD23482968C068C000B0FBF1F06D
:103590002149A1FB00214A09A2EB021100EB8103A2
:1035A0001E491F480BF064FD1D480BF051FD1D48DE
:1035B0000BF04EFD1CA10F48A2680BF059FD0D4801
:1035C0000BF046FD03B0012030BD0000F8B3002031
:1035D000F80801204CB4000850B4000858B40008A2
:1035E0003001002062797465734C6566743D256412
:1035F0000A0000002E82002098C3002098D50020E9
:1036000080E800204C01002064B3000884B3000867
:1036100098B30008F818012089888888BCB300088E
:10362000EC820020CCB3000862797465734C656647
:10363000743A3A3A3A25640A0000000010B54FF493
:10364000007001F07BFBBDE8104001A00BF000BD55
:1036500075736220646973636F6E6E6563740A00CC
:1036600010B5042001F06AFBBDE8104001A00BF08A
:10367000EFBC0000627574746F6E20696E746572C1
:103680007275707420320A0005A00BF0E1FC022074
:10369000FFF784F94FF47A7001F03DFBF7E7000083
:1036A0004572726F725F48616E646C6572200000D3
:1036B00010B50349034800F009F80349087010BD2C
:1036C000240100203412050823010020124A01239E
:1036D00092F809C0BCF1010F1BD892F809C0002371
:1036E00002F80C3092F809C002EB8C0CCCF8040004
:1036F000507A02F1080C00F80C30507A00F1010CFD
:1037000082F809C0303008703A2048702F20887045
:10371000CB7018467047000034A3012010B4D1E9E3
:10372000013243EA020CD1E903321A434CEA0203A4
:103730004A690C6813438A69012C43EA020CCB697D
:103740000A6A496A046808D04CEA03031A436FF313
:103750000E041143214301600BE024F4F8441A43A2
:1037600021430A43416802606FF30E014CEA0101F4
:10377000416010BC00207047426942EA410141614A
:1037800000207047F8B515460446D1E90002104301
:103790008A686FF01F03C96803EB421242EA4121B5
:1037A00008430090206101F011FC0646A06910F06A
:1037B000200F0ED0B5F1FF3F07D025B101F006FC78
:1037C000801BA84201D90320F8BDA06910F0200F8A
:1037D000F0D10020F8BD2DE9F0016FF00F05D1F810
:1037E00004C00B682C0105EB0C1C5B1E43EA0C0C9F
:1037F0008B684FEA042804EB03234CEA03050B8A89
:103800002703260408EB034C8B8ACC68097E012A27
:10381000826807EB035306EB01610DD0361306EB0C
:1038200004342C4344EA0C0C4CEA030302F07042CB
:1038300019431143816012E0240322F47042A4F57D
:10384000805422F4700223431A43C36845EA0C0CE7
:1038500003F070434CEA010119438260C160BDE886
:10386000F001002070472DE9FF4F82B00A1A0F9C2B
:103870004FF00009002AD8BF421A12B2A4EB030C81
:10388000BCF1000FD8BFA3EB040C0FFA8CFC0FFAAD
:1038900080F81FB281422CBF01204FF0FF30019011
:1038A0002CBF4FF0010B4FF0FF3B9C422CBF01207F
:1038B0004FF0FF3000902CBF4FF0010A4FF0FF3A5D
:1038C000624508DB00208246019002EBD27014466C
:1038D0004610654608E04FF0000B0CEBDC706446C8
:1038E00046101546CDF800B0002CBCBF06B0BDE8B0
:1038F000F08FB9B21FFA88F0109B049AFEF754FCBF
:10390000701906B2A64208DB301B06B2019840448B
:103910000FFA80F80098384407B208EB0B000FFA52
:1039200080F807EB0A0007B209F101000FFA80F9ED
:10393000A145DEDD06B0BDE8F08F2DE9F0471E00A1
:103940000D4604463DD0C6F11F074FF001004FF071
:10395000000900FA07F012F0010FA0F10108CA46B1
:1039600065D02068C11740FA07F28A4218BF88EA7A
:103970000100B0402060FCF73EFC40EA090954F821
:10398000800F4042C11740FA07F28A4218BF88EA06
:103990000100B0402060FCF72EFC40EA09092868CD
:1039A000C11740FA07F280348A4218BF88EA010042
:1039B000B0400AF1020A45F8040BBAF1120FD0DB4D
:1039C00063E012F0010F2FD0D4F88050D4F880C8F3
:1039D000D4F880116D42D4F88094D4F88085D4F85E
:1039E0008076D4F88067D4F88032D4F880234942B6
:1039F000C4F88050C4F880115942C4F88012514272
:103A0000C4F88013C9F10001C4F88014C8F10001A2
:103A1000C4F880157942C4F880167142CCF10000D8
:103A2000C4F88017C4F880080020BDE8F08720683B
:103A3000C11740FA07F28A4218BF88EA0100B04075
:103A40002060FCF7D8FB40EA090954F8800FC11741
:103A500040FA07F28A4218BF88EA0100B0402060AD
:103A6000FCF7C9FB40EA09092868C11740FA07F2C8
:103A700080348A4218BF88EA0100B0400AF1020A85
:103A800045F8040BBAF1120FD1DB4846BDE8F087C8
:103A90002DE9F0410025972110FB01F1134800EBBF
:103AA0004106701CFDF70EF810F0FF072C4615D0EC
:103AB00031194878802804D9897841EA0020611CAE
:103AC000CCB201210FF00EFD06EB4501A1F8660016
:103AD000601CC4B2681CC5B2BC42E9D3294604A02C
:103AE0000BF0B6FA2846BDE8F0810000B00B0020CC
:103AF00047424B32556E69636F6465202D3E2066E8
:103B0000696C65206E616D6520756E69636F6465B3
:103B10002073697A653A25640A000000802805D27E
:103B20002038C0B200EBC000C000704700EBC000FE
:103B30004FF4005101EBC000704700002DE9F8433D
:103B400004466EA00BF084FA714872A10A68026004
:103B50004A68426009890181972014FB00F070498E
:103B600001EB4000411C6A48FCF784FF01226849D0
:103B70006C480FF007FA04000BD065496AA00BF0FF
:103B800067FA21466CA00BF063FA66480FF001F863
:103B900050E073A00BF05CFA794E78496B464FF415
:103BA0000062604831600FF01DFB01469DF8002067
:103BB00074A00BF04DFA7E487EA10BF06DFA002444
:103BC00027467E4D1FFA84F87948D6F80090FCF716
:103BD00079FF10F0FF034FF000001AD009EB080046
:103BE000411E681E13F0010F03D011F8012F00F8D9
:103BF000012F5A080CD000BF91F801C080F801C015
:103C0000521E11F802CF120400F802CF120CF3D1A9
:103C1000184667492F546948FCF75BFF68B1641C7C
:103C2000B4F5006FCDD33F480EF0B3FF214664A03A
:103C30000BF00EFA0120BDE8F88321466FA00BF0CF
:103C400007FA5B48FCF73EFF04443068714D20449E
:103C50000188827849BA0904C07841EA0221014307
:103C60006DA029600BF0F4F904F114012D480EF059
:103C7000DDFF2868A0F10E018A0A6DA069600BF0D3
:103C8000E7F96A68B2F5AF2F08D974A00BF0E0F934
:103C900024480EF07EFF0220BDE8F8836B462148E1
:103CA00031680FF09FFA3068002102786FA00BF0A6
:103CB000CFF93068012142786CA00BF0C9F9306867
:103CC0000178FF290AD0892911D0407850280ED0D8
:103CD0006DA00BF0BDF90420BDE8F8834178D82928
:103CE000F3D110480EF055FF0020BDE8F8836CA01A
:103CF0000BF0AEF90320BDE8F88300004765745F60
:103D00004D75736963436F7665724A7065670A0023
:103D1000AA810020303A2F6D757369632F0000006F
:103D2000B00B00204829012066696C655F706174E2
:103D3000683A25730A0000006F70656E206D757318
:103D40006963206A7065672066696C6520657272B8
:103D50006F72202C7265743A2025640A00000000FE
:103D60006F70656E206D75736963206A706567207A
:103D700066696C652073756363200A00000040C0AB
:103D800014010020665F726561645F7265743A2099
:103D900025642C72656164206D75736963206669A2
:103DA0006C652062797465206E756D3A25640A0031
:103DB0002E82002041504943000000000E82002066
:103DC0006E6F742066696E64206A706567202C725D
:103DD000657475726E20616E6420636C6F7365200C
:103DE0006D757369632066696C652C6865616454E0
:103DF00061624964783A25640A00000066696E646D
:103E0000204150494320696E20706F733A2025236A
:103E1000780A0000DC430120436F7665724A7065C2
:103E2000672E5461675F537A69653A2523780A00E3
:103E3000436F7665724A7065672E4A7065675F5397
:103E40007A69653A2523782C2066696C6520736948
:103E50007A653A2564204B420A0000006A70656763
:103E600020697320746F206269670A004A70656771
:103E70005F436F7665725F627566665B25645D3A67
:103E80002523780A000000004A70656720697320C6
:103E9000756E6B6E6F7720747970650A0000000094
:103EA0004A70656720697320504E472074797065A9
:103EB0000A0000000148B0F90000704748010020E6
:103EC00000EB011290F838301832012B04BF0220A9
:103ED000704770B44FF0010C80F838C0022380F8AE
:103EE000393053684FF440340A2B18BF092B94FA29
:103EF000A4F49568B4FA84F405FA04F4D5681CD0E7
:103F00004FF07F4696FAA6F6B6FA86F605FA06F55B
:103F100044EA050444EA030300291C4C016813D059
:103F2000CD692C402343CB61036811681961516846
:103F30000A2918BF09291BD01FE005F07F4544EA74
:103F4000050444EA0303E7E74D6A05EA040444EA8A
:103F500003034B6203681168996151680A2918BF0D
:103F600009290AD1D168026821F07F41916204E0F9
:103F7000D168026821F07F41116280F839C04FF0AA
:103F8000000180F8381070BC08467047F0FFFC0054
:103F9000002804BF0120704770B5044690F839002E
:103FA000002520B984F83850204600F01EF8022081
:103FB00084F8390020680168626821F440311143B7
:103FC00001602068416BA26821F007011143416341
:103FD0002068016CE2686FF30D0111430164E56331
:103FE000012084F83900002070BD70472DE9F843A6
:103FF00000260446009600680D4600684FF004074E
:1040000010F0010F4FF0030837D000F0DFFF8146BA
:104010002068406810F0020F2FD12068406800909F
:1040200010F0210F19D0009810F0200F03D0E06B92
:1040300040F00200E063009810F0010F03D0E06B45
:1040400040F00100E06321682120886084F8397025
:1040500084F838600120BDE8F883B5F1FF3F07D050
:10406000002D4DD000F0B2FFA0EB0900A84247D8C8
:104070002068406810F0020FCFD02068C16911F0AD
:10408000200F04BF406A10F0200F49D000F09EFFBF
:1040900081462068406810F0100F41D120684068C8
:1040A000009010F0290F21D0009810F0080F03D0D5
:1040B000E06B40F00400E063009810F0200F03D0A4
:1040C000E06B40F00200E063009810F0010F03D0B5
:1040D000E06B40F00100E06321682920886084F8EB
:1040E000397084F838600120BDE8F883B5F1FF3FEE
:1040F00011D02DB100F06AFFA0EB0900A8420AD947
:10410000E06B40F02000E06384F8398084F8386088
:104110000320BDE8F8832068406810F0100FBDD080
:10412000216812208860012084F8390084F8386002
:104130000020BDE8F88338B50446049894F838C0E8
:10414000BCF1010F04BF022038BD4FF0010C84F810
:1041500038C04FF0020C84F839C000902046FFF7B9
:1041600005F92068016841F001010160002038BDB7
:104170002DE9F0410446876D00F028FF054694F8CC
:1041800035000026022806D08020606584F834605F
:104190000120BDE8F0812068016821F0160101606E
:1041A0002068416921F080014161206C002804BF32
:1041B000A06C002804D02068016821F0080101608B
:1041C0002068016821F0010101602068006810F09A
:1041D000010F12D000F0FAFE401B052808D920205C
:1041E000606584F83460032084F83500BDE8F08110
:1041F0002068006810F0010FECD194F85C003F21BA
:1042000001FA00F0B86084F83460012084F83500C9
:104210000020BDE8F0810000002804BF01207047A5
:1042200090F83510022904BF0220704701680A681F
:1042300022F001020A6002680021116002685160E8
:10424000026891600268D1600268116103682122EE
:104250005A610268DFF838C0D3B2103BACFB03C32D
:10426000DFF830C01B09032B1CF803C0C0F85CC08A
:104270006FF3090288BF121D3F2303FA0CF3826516
:104280009360416580F8351080F834100020704745
:10429000ABAAAAAADEE801082DE9F84304464FF0CC
:1042A0000008CDF8008073484FF41651A56D0068E2
:1042B000B0FBF1F72E6894F85C00082101FA00F0D9
:1042C000304211D02068026812F0040F0CD002684E
:1042D00022F00402026094F85C0001FA00F0A86089
:1042E000606D40F00100606594F85C1062488840A1
:1042F000304209D02168496911F0800F04D0A860CC
:10430000606D40F00200606594F85C105B48884086
:10431000304209D02168096811F0020F04D0A8606A
:10432000606D40F00400606594F85C1010208840D7
:10433000304220D02168096811F0080F1BD0A86016
:104340002068016811F4802F09D0006810F4002F54
:1043500002D0A16C79B10CE0216C51B90BE001687D
:1043600011F4807F03D1016821F008010160216C04
:1043700009B12046884794F85C10202088403042DC
:104380004FF001064AD02168096811F0100F45D09E
:10439000A86094F8350005282068016809D011F458
:1043A000802F2BD0006810F4002F24D0E16B21B3B4
:1043B00032E021F0160101602068416921F080019E
:1043C0004161206C002804BFA06C002804D0206844
:1043D000016821F00801016094F85C004FF03F0192
:1043E00001FA00F0A86084F8348084F83560216D0B
:1043F000D1BBBDE8F883616C71B90FE0016811F4BD
:10440000807F07D1016821F01001016084F83480B9
:1044100084F83560E16B09B120468847606D00285B
:1044200008BFBDE8F883606D10F0010F17D04FF0A2
:10443000050084F835002068016821F00101016061
:10444000009800F101000090B84204D8206800688C
:1044500010F0010FF4D184F8348084F83560E16CF9
:10446000002908BFBDE8F883204601B0BDE8F0434D
:104470000847000070020020010080000400800056
:1044800070B5044600F0A2FD0546002C04BF0120D3
:1044900070BD002684F83460022084F8350020685E
:1044A000016821F0010101602068006810F0010F2F
:1044B00010D000BF00F08AFD401B052805D9202040
:1044C0006065032084F8350070BD2068006810F036
:1044D000010FEFD121680868424A1040D4E9012356
:1044E0001A43D4E9033C43EA0C031A4363691A43B1
:1044F000A3691A43E3691A43236A1A431043626AA1
:10450000042A03D1D4E90B231A431043086023681B
:104510005869D4F824C020F0070001224CEA0001B9
:10452000BCF1040F43D1A06AD4F818C00143BCF118
:10453000000F0AD0BCF5005F1CD000281CBF01286A
:1045400002282CD0032826D031E020B1012807D042
:1045500002280AD02BE0E06A10F0807F1FD126E00D
:10456000E06AB0F1C07F22D119E0E06A10F0807FEC
:1045700015D11CE098B1012808D002280FD00328DB
:1045800004BFE06AB0F1C07F09D010E0E06A10F02B
:10459000807F04D10BE0E06A10F0807F07D04FF0FD
:1045A0004000606584F835204FF0010070BD59610E
:1045B00020680D4BC1B2A1F11001A3FB01310B4BDF
:1045C0004FEA111103295B5CE3656FF3090088BFB3
:1045D000001D3F219940A0658160666584F8352003
:1045E000002070BD3F8010F0ABAAAAAADEE8010847
:1045F00070B490F83450846D4FF0000C012D02BF60
:10460000022070BC7047012580F8345090F8356066
:104610000025012E1CBF80F834504FF0020C02D050
:1046200070BC60467047022680F8356045650568B5
:104630002E6826F480262E6005686B608368402B08
:10464000036803BF9A600268D16099601CBF01686B
:10465000CA6090F85C103F2202FA01F1A160016883
:104660000A6842F016020A6001684A6942F0800254
:104670004A61016C21B101680A6842F008020A60CF
:104680000068016841F001010160C9E7027C012A6C
:1046900004BF0220704701220274D1E90023934233
:1046A00088BF1A4610B40368D3F898C00CF0FC2CED
:1046B000C3F898C00368D3F898C042EA02424CEAB3
:1046C0000202C3F898200268D2F89C3003F4004339
:1046D000C2F89C300268D2F89C30D1F810C00C7A35
:1046E00043EA0C03B1F80CC04FEA0C4C4CEA046CE2
:1046F00043EA0C03C2F89C300268D2F8A43023F4D9
:104700007F43C2F8A4300268D2F8A430496943EA72
:104710000121C2F8A4100021017410BC08467047A2
:10472000027C012A04BF0220704710B401220274E7
:104730000268536B23F0010353630268D2F800341C
:1047400023F00103C2F800340268936B23F00303E3
:1047500093630268936BD1F80CC043EA0C03936334
:104760000268D36B6FF30D03D3630268D36BD1F888
:1047700010C043EA0C03D3630268136C6FF30C039D
:1047800013640268136CD1F814C043EA0C03136479
:104790000268536C6FF30C0353640268536CD1F8D6
:1047A00018C043EA0C0353640268D36823F0030380
:1047B000D3600268D368D1F800C043EA0C03D36029
:1047C0000268536923F00703536102685369D1F803
:1047D00024C043EA0C03D1E9074C4CEA040C43EA39
:1047E0000C0353610268136923F00F03136102681D
:1047F0001369D1F804C043EA0C0313610268D2F8CC
:10480000003423F00E03C2F800340268D2F80034FA
:10481000D1F804C043EA4C03C2F800344A68032AC2
:104820000BD10268136923F4807313610268136962
:10483000D1F808C043EA0C0313610268936C6FF36C
:104840000B0393640268936CD1F828C043EA0C030D
:1048500093640268D36C6FF30B03D3640268D36C68
:10486000D1F82CC043EA0C03D3640268136D6FF3D4
:104870000E0313650268136DD1F830C043EA0C03D0
:1048800013650268536D6FF3090353650268536D36
:10489000D1F834C043EA0C0353650268936D6FF39B
:1048A000090393650268936DD1F838C043EA0C039D
:1048B00093650268D36D6FF30903D3650268D36D06
:1048C000D1F83CC043EA0C03D3650268136E6FF362
:1048D0000D0313660268136ED1F840C043EA0C035F
:1048E00013660268936B23F4004393630268936B2F
:1048F000D1F844C043EA0C0393630268936923F43C
:104900007F03936102689369B1F848C043EA0C439E
:1049100093610268936923F0FF03936102689369CE
:10492000D1F84CC043EA0C0393610268936B23F403
:10493000005393630268936BD1F850C043EA0C03B1
:1049400093630268936B23F4805393630268936BC1
:10495000D1F854C043EA0C0393630268936B23F4C9
:10496000006393630268936BD1F858C043EA0C0369
:1049700093630268936B23F4806393630268936B81
:10498000D1F85CC043EA0C0393630268936B23F491
:10499000007393630268936BD1F860C043EA0C0321
:1049A00093630268936B23F4807393630268936B41
:1049B000D1F864C043EA0C0393630268936B23F459
:1049C000804393630268936B896E1943916300215E
:1049D000017410BC08467047002804BF01207047CE
:1049E00010B50446032060742068D0F8041421F048
:1049F0000801C0F804142068416821F001014160F9
:104A00002068D0F8A01021F00601C0F8A01020689E
:104A1000D0F8301421F00101C0F830142068D0F82B
:104A2000301421F08071C0F83014204600F023F9D2
:104A3000002060616074207410BD0000002804BF75
:104A40000120704770B50446407C0D46002804BF25
:104A5000204600F011F9032060742068D0F830146B
:104A600041F08071C0F8301400F0B0FA06462068BA
:104A7000D0F80C0410F4805F0CD100BF00F0A6FA4F
:104A8000801BB0F57A7F33D82068D0F80C0410F47E
:104A9000805FF3D02068D0F8301421F4FE7121F447
:104AA0005E31C0F830142068D0F830142A682B89A1
:104AB00041EA82016A68D20242EA03421143C0F825
:104AC00030142068D0F8301441F00101C0F83014DF
:104AD00000F07CFA06462068D0F80C0410F4807FC1
:104AE0000ED100BF00F072FA801BB0F57A7F01D9B9
:104AF000032070BD2068D0F80C0410F4807FF1D042
:104B00002068D0F8A01041F00601C0F8A01020687D
:104B1000D0F8941021F00301C0F894102068D0F868
:104B200094106268114341F00101C0F894102068AC
:104B3000D0F8A41021F00301C0F8A4102068D0F828
:104B4000A410E2681143C0F8A4102068816821F025
:104B5000FF01816020688168A268114381606868F4
:104B6000002808BF012012494FF4FA524843297A1D
:104B7000884029685143B0FBF1F02168D1F818242E
:104B800022F03F02C1F818242168D1F818241043FC
:104B9000C1F8180421680020C1F8C4002168C1F8D8
:104BA000C800A061606101206074002070BD000039
:104BB00000093D002DE9FF5F0546DDE90E87007C19
:104BC00000241E468946012802BF022004B0BDE829
:104BD000F09F0120287400F0F9F983462868406F9F
:104BE0004FF0000A10F0010F12D100BF00F0EEF9F3
:104BF000A0EB0B00B0F57A7F05D985F810A004B0C2
:104C00000320BDE8F09F2868406F10F0010FEDD041
:104C1000A6421DD900E074B9385D48EA0021381970
:104C20004278807841EA024141EA006128680167E0
:104C3000E41CA6420CD9381982780188C07862F346
:104C40001F4141EA006029680867241DA642E2D896
:104C5000711C0298CBB22A6840EA8910C1F307217F
:104C600040EA032040EA0140D06685F810A004B075
:104C70000020BDE8F09F704770472DE9F0470446DB
:104C8000007CDDF820901E4617468846012804BFA8
:104C90000220BDE8F0870120207400F097F9054656
:104CA0002068406F4FF0000A10F0010F0FD100F0A4
:104CB0008DF9401BB0F57A7F04D984F810A0032049
:104CC000BDE8F0872068406F10F0010FEFD047EA91
:104CD0008811206841EA062141EA0941C16684F849
:104CE00010A00020BDE8F087017C012904BF02204C
:104CF00070470121017401684A6842F001024A606C
:104D00000168D1F8042442F00802C1F8042400210B
:104D100001740846704731B500F058F9044600F0B8
:104D200055F90099001B8842F9D338BDB0F5007FD2
:104D300018BF70470020FDF731BE000004490A6823
:104D4000024208BF704710B50860FFF7EFFF10BDC3
:104D5000143C01402DE9F84F0022904EDFF840E26C
:104D600001274FF0030A4FF00F0800BF0B6807FA46
:104D700002F42340A34240F00B81D1F804C0BCF1FF
:104D8000020F18BFBCF1120F15D14FEAD20C00EB85
:104D90008C05D5F820904FEA427C4FEADC6C08FA8B
:104DA0000CFB29EA0B09D1F810B00BFA0CFC4CEA09
:104DB000090CC5F820C0D0F800904FEA420C91F8D9
:104DC00004B00AFA0CF50BF0030B29EA05090BFAFB
:104DD0000CFB4BEA0909C0F80090D1F80490B9F136
:104DE000010F18BFB9F1020F05D0B9F1110F18BFAB
:104DF000B9F1120F18D1D0F80890D1F80CB029EA07
:104E000005090BFA0CFB4BEA0909C0F80890D0F829
:104E1000049029EA040491F80490C9F3001909FAEE
:104E200002F949EA04044460C46824EA05048D6870
:104E300005FA0CFC4CEA040CC0F80CC0D1F804C014
:104E40001CF0805F7DD0D6F800C04CF4804CC6F8D2
:104E500000C0D6F800C00CF4804CCDF800C022F0A1
:104E6000030C0CF1804404F59834D4F808584FEA48
:104E7000827C4FEA1C7C08FA0CF925EA0905A0F1AE
:104E80008049B9F5003948D0A0F18049B9F5013918
:104E900008BF4FF0010940D0A0F18049B9F50239AF
:104EA00008BF4FF0020938D0A0F18049B9F50339A5
:104EB00008BF4FF0030930D0A0F18049B9F504399B
:104EC00008BF4FF0040928D0A0F18049B9F5053991
:104ED00008BF4FF0050920D0A0F18049B9F5063987
:104EE00008BF4FF0060918D0A0F18049B9F507397D
:104EF00008BF4FF0070910D0A0F18049B9F5083973
:104F000008BF4FF0080908D0A0F18049B9F5093968
:104F10000CBF4FF009094FF00A0909FA0CFC4CEAE2
:104F2000050CC4F808C8DEF800C04C682CEA030C75
:104F300014F4803F18BF4CEA030CCEF800C0194CA3
:104F400000E025E0D4F800C04D682CEA030C15F40D
:104F5000003F18BF4CEA030CC4F800C0124CD4F850
:104F600000C04D682CEA030C15F4801F18BF4CEAF2
:104F7000030CC4F800C00D4CD4F800C04D682CEAF6
:104F8000030C15F4001F18BF4CEA030CC4F800C052
:104F9000521C102AFFF4EAAEBDE8F88F44380240F4
:104FA000003C0140043C0140083C01400C3C0140F5
:104FB0000069084018BF01207047426951404161B3
:104FC0007047002A08BF09048161704701480068E2
:104FD0007047000000000020002804BF0120704737
:104FE00010B50446242084F83D002068016821F0B3
:104FF00001010160204600F0C9FA0020206484F815
:105000003D00206384F83E0084F83C0010BD90F819
:105010003D007047002804BF0120704770B504466A
:1050200090F83D00002520B984F83C50204600F05F
:10503000AEFA242084F83D002068016821F00101C7
:10504000016001F07DFF33492268B0FBF1F151604E
:10505000314A6368934298BF491C07D94FF496734D
:1050600059434FF47A73B1FBF3F1491C2368196279
:1050700061688A420AD34900B0FBF1F2C2F30B0225
:10508000042A34BF0420B0FBF1F023E0A368002B16
:105090000EBF01EB410201EBC10202EB0112B0FBBA
:1050A000F2F218BF42F480421205120D08BF01202F
:1050B00010D0002B04BF01EB4101B0FBF1F007D091
:1050C00001EBC10202EB0111B0FBF1F040F48040B2
:1050D00040F400402168C861D4E907010843216811
:1050E0000860D4E90310084321688860D4E9050109
:1050F00008432168C8602068016841F0010101602F
:105100002564202084F83D00256384F83E5000206B
:1051100070BD000040420F00A08601002DE9FF4F46
:1051200083B09A46DDE9119593460446DDF8408048
:10513000FFF74CFF064694F83D00202840F04581DB
:1051400019230122A3492046009604F033FC0028CD
:1051500040F03B8194F83C00012800F036810120AA
:1051600084F83C002068016811F0010F03D1016848
:1051700041F0010101602068016821F400610160D3
:10518000222084F83D00402084F83E000027276458
:10519000C4F82480A4F82A908F48E062608D2085AE
:1051A000CDE9005653465A462046049904F01EFBAA
:1051B00048B1206C84F83C7004280CBF0120032007
:1051C00007B0BDE8F08F208D4FF0200840B10128D6
:1051D0000FD00228206812D04169806900901EE03B
:1051E0002068416981690091016841F400710160A2
:1051F00012E02068016821F480610160F0E7016835
:1052000021F4806101602068016841F4006101605F
:105210002068416980690090208D002875D0DFF8F2
:10522000BCB16FF0100A208D032870D801280CD073
:10523000B9F1020F2B464FF0000259462046009666
:1052400030D004F0B7FB90B3BBE02068406910F0A9
:10525000400F25D12068406910F0100F09D0206858
:10526000C0F814A02764276384F83D8084F83C705C
:105270000DE025B1FFF7AAFE811BA9420BD9206CD6
:1052800040F02000206484F83D8084F83C70206C5D
:1052900020287DD060E02068406910F0400FD9D010
:1052A000206873E004F086FB002871D11AE0FFE764
:1052B0002068016821F48061016020680169606AEA
:1052C000421C62620170208D401E2085608D401E50
:1052D00060852B46002259462046009604F06AFB62
:1052E00000286ED12068016841F4007101602068D7
:1052F0000169606A421C62620170208D401E208537
:10530000608D401E6085206840E050E0FFE7206827
:10531000406910F0400F28D12068406910F0100F4C
:1053200009D02068C0F814A02764276384F83D8062
:1053300084F83C700DE025B1FFF748FE811BA942BF
:105340000ED9206C40F02000206484F83D8084F861
:105350003C70206C202834D007B00120BDE8F08FCD
:105360002068406910F0400FD6D020680169606A5B
:10537000421C62620170208D401E2085608D401E9F
:1053800060852068416911F0040F0CD0016900E0CC
:1053900017E0606A421C62620170208D401E208509
:1053A000608D401E6085208D00287FF43CAF84F81E
:1053B0003D8084F83E7084F83C7007B00020BDE862
:1053C000F08F07B00320BDE8F08F07B00220BDE8E2
:1053D000F08F0000020010000000FFFF0400010039
:1053E0002DE9FF4F83B09A46DDE9118793460446C5
:1053F000DDF84090FFF7EAFD064694F83D002028CE
:1054000040F0BD80192301225E492046009604F039
:10541000D1FA00287CD194F83C00012878D00120F2
:1054200084F83C002068016811F0010F03D1016885
:1054300041F0010101602068016821F40061016010
:10544000212084F83D00402084F83E00002525649A
:10545000C4F82490A4F82A804B48E062608D20852F
:10546000CDE9007653465A462046049904F048FA9E
:1054700048B1206C84F83C50042818BF03207CD02D
:1054800007B0BDE8F08F208D50B332463946204634
:1054900004F039FB18B1206C042869D04EE0606A32
:1054A000411C6162017820680161208D401E80B23C
:1054B0002085618D491E618521684A6912F0040FBB
:1054C0000BD068B1606A421C626200780861208D6E
:1054D000401E2085608D401E6085208D0028D4D11F
:1054E000206840694FF0200810F0040F2FD1206889
:1054F000406910F4806F0CD021686FF480604861BF
:1055000004202064256384F83D8084F83C5012E038
:1055100035E0B7F1FF3F15D027B1FFF757FD801BEE
:10552000B8420FD9206C40F020002064256384F835
:105530003D8084F83C50206C042819D007B003202B
:10554000BDE8F08F2068406910F0040FCFD02168CB
:10555000086840F40070086084F83D8084F83E508C
:1055600084F83C50002007B0BDE8F08F05E0FFE76D
:105570002068016841F4007101600120F3E7022016
:10558000F1E70000020010000000FFFF70477047C5
:1055900002480168491C01607047000000000020BB
:1055A0000B4810B5016841F400710160016841F4D5
:1055B00080610160016841F480710160032000F0A6
:1055C0006BF9002000F006F800F0F9F8002010BD9B
:1055D000003C024010B5044607484FF47A72006858
:1055E000B0FBF2F003F0F0FA00222146501E00F06A
:1055F00021F9002010BD0000700200202DE9F05FAD
:10560000044690F8A000012804BF0220BDE8F09FE6
:10561000012584F8A050022084F8A100B1E8C81F39
:1056200002EB820000EBC20004EB80003830A0E8FF
:10563000C81F91E8C81180E8C8112046203904F03D
:10564000FAFD2068456284F8A150002084F8A0008B
:10565000BDE8F09F002804BF0120704770B50446E4
:1056600090F8A100002520B984F8A050204600F051
:1056700077F8022084F8A1002068816921F0704148
:105680008161D4E901010843D4E9031211430143C4
:10569000206882691143816121688A682F4802402D
:1056A0008A60A18A0A0421688B68D4F818C043EA8A
:1056B0000C031A438A602168CA680240CA60A18B41
:1056C0000A042168CB68D4F820C043EA0C031A43CB
:1056D000CA6021680A6902400A61A18C0A04216833
:1056E0000B69D4F828C043EA0C031A430A61216805
:1056F0004A69104048612168A08D4A69236B1A43AA
:1057000042EA0040486194F8361094F835000A04E3
:105710002168CB6A03F07F43CB622168CB6A94F89F
:1057200034C042EA002043EA0C031843C8622068F0
:10573000416B41F0040141632068416B41F002017B
:1057400041632068816941F001018161C4F8A4507E
:10575000012084F8A100002070BD000000F800F0D6
:1057600070474A6A002A18BF4FF00052C2600A6AA6
:10577000002A0CBF4FF0804200228260CA69002AD2
:105780000CBF4FF00042002242604A6B521E826101
:10579000D1E90D231A44521E0262D1E90D231A44A5
:1057A0000B6C5B1E1A448262D1E90D231A440B6C08
:1057B000C96B19441144491E01630020704710B59C
:1057C000032000F069F8002211466FF00B0000F092
:1057D00031F8002211466FF00A0000F02BF8002289
:1057E00011466FF0090000F025F800221146501F05
:1057F00000F020F800221146101F00F01BF80022D4
:105800001146901E00F016F80022BDE81040114627
:10581000501E00F00FB80028B8BF704700F01F01FD
:10582000012202FA01F14009800000F1E020C0F8F5
:1058300000117047174B10B41B68C3F30223C3F168
:10584000070CBCF1040F88BF4FF0040C1C1D072C83
:1058500034BF0023DB1E012404FA0CFCACF1010C64
:105860000CEA0101994004FA03F35B1E1A4011434C
:1058700000284FEA0111A1BF00F1E02080F80014D8
:1058800010BC704700F00F0000F1E02080F8141DFC
:1058900010BC70470CED00E0074900F007000A68F3
:1058A0004FF6FF031A4042EA002040F0FD7040F03E
:1058B00080600860704700000CED00E00122016884
:1058C000C0F8F423002280F8EC23886940F00060DF
:1058D0008861486D40F0030040F0805048651046F4
:1058E00070477047006841620020704770B40068DC
:1058F0000023D0F824C0002904BF4CEA0241816291
:1059000018D0846A0CEB144C4C1E18BF4FF48275EF
:1059100009D000BF05EB830686595B1CDBB20CEB9C
:10592000164C9C42F6D84FF4807303EB81014CEA8D
:105930000242425070BC00207047D0F8F80308F0D3
:1059400088B8C1EBC10200EB8202D0F8F803526CB8
:1059500007F0F2BFC1EBC10200EB8202D0F8F803FE
:10596000D2F8042208F040B8D0F8F80308F073B871
:1059700010B5044601F07F03C3EBC3000A4611F0E3
:10598000800F04EB800014BF00F1380100F5FC71BA
:105990000B70D009487094F8B803012804BF0220A6
:1059A00010BD012084F8B803206808F0D1FD002064
:1059B00084F8B80310BD70B504460A4611F0800F94
:1059C00001F07F0014BFC0EBC001C2EBC20104EBC9
:1059D000810114BF383101F5FC7100258D7008700C
:1059E000D009487094F8B803012804BF022070BDA4
:1059F000012084F8B803206808F0A3FF84F8B853A6
:105A0000002070BD10B5044690F8B803012804BF0B
:105A1000022010BD012084F8B80311F0800F05D0DA
:105A200001F07F01206809F043F902E0206809F0E5
:105A30002DF9002084F8B80310BD01F00F01C1EB6F
:105A4000C10100EB8100B0F8100280B2704770B560
:105A500004468C4611F0800F01F07F00C0EBC001BE
:105A600004EB810114BF383101F5FC7108705FEA65
:105A7000DC1C81F801C08A60CB7018BFC88000258B
:105A8000022B08BF0D7194F8B803012804BF02204F
:105A900070BD012084F8B803206808F09DFC2846FA
:105AA00084F8B85370BD70B504468C4601F07F0091
:105AB000C0EBC00104EB81010025C1F80422C1E95B
:105AC000833581F8F95181F8F801206901F5FC71FD
:105AD000012808BF0A6194F8B803012804BF022016
